{
  "_format": "hh-sol-artifact-1",
  "contractName": "AhmedNFT",
  "sourceName": "contracts/AhmedNFT.sol",
  "abi": [
    {
      "inputs": [],
      "stateMutability": "nonpayable",
      "type": "constructor"
    },
    {
      "anonymous": false,
      "inputs": [
        {
          "indexed": true,
          "internalType": "address",
          "name": "owner",
          "type": "address"
        },
        {
          "indexed": true,
          "internalType": "address",
          "name": "approved",
          "type": "address"
        },
        {
          "indexed": true,
          "internalType": "uint256",
          "name": "tokenId",
          "type": "uint256"
        }
      ],
      "name": "Approval",
      "type": "event"
    },
    {
      "anonymous": false,
      "inputs": [
        {
          "indexed": true,
          "internalType": "address",
          "name": "owner",
          "type": "address"
        },
        {
          "indexed": true,
          "internalType": "address",
          "name": "operator",
          "type": "address"
        },
        {
          "indexed": false,
          "internalType": "bool",
          "name": "approved",
          "type": "bool"
        }
      ],
      "name": "ApprovalForAll",
      "type": "event"
    },
    {
      "anonymous": false,
      "inputs": [
        {
          "indexed": true,
          "internalType": "address",
          "name": "from",
          "type": "address"
        },
        {
          "indexed": true,
          "internalType": "address",
          "name": "to",
          "type": "address"
        },
        {
          "indexed": true,
          "internalType": "uint256",
          "name": "tokenId",
          "type": "uint256"
        }
      ],
      "name": "Transfer",
      "type": "event"
    },
    {
      "inputs": [],
      "name": "PRICE_IN_WEI",
      "outputs": [
        {
          "internalType": "uint256",
          "name": "",
          "type": "uint256"
        }
      ],
      "stateMutability": "view",
      "type": "function"
    },
    {
      "inputs": [
        {
          "internalType": "address",
          "name": "to",
          "type": "address"
        },
        {
          "internalType": "uint256",
          "name": "tokenId",
          "type": "uint256"
        }
      ],
      "name": "approve",
      "outputs": [],
      "stateMutability": "nonpayable",
      "type": "function"
    },
    {
      "inputs": [
        {
          "internalType": "address",
          "name": "owner",
          "type": "address"
        }
      ],
      "name": "balanceOf",
      "outputs": [
        {
          "internalType": "uint256",
          "name": "",
          "type": "uint256"
        }
      ],
      "stateMutability": "view",
      "type": "function"
    },
    {
      "inputs": [
        {
          "internalType": "uint256",
          "name": "tokenId",
          "type": "uint256"
        }
      ],
      "name": "getApproved",
      "outputs": [
        {
          "internalType": "address",
          "name": "",
          "type": "address"
        }
      ],
      "stateMutability": "view",
      "type": "function"
    },
    {
      "inputs": [
        {
          "internalType": "address",
          "name": "owner",
          "type": "address"
        },
        {
          "internalType": "address",
          "name": "operator",
          "type": "address"
        }
      ],
      "name": "isApprovedForAll",
      "outputs": [
        {
          "internalType": "bool",
          "name": "",
          "type": "bool"
        }
      ],
      "stateMutability": "view",
      "type": "function"
    },
    {
      "inputs": [
        {
          "internalType": "address",
          "name": "_to",
          "type": "address"
        },
        {
          "internalType": "uint256",
          "name": "_tokenId",
          "type": "uint256"
        }
      ],
      "name": "mintNFT",
      "outputs": [],
      "stateMutability": "nonpayable",
      "type": "function"
    },
    {
      "inputs": [],
      "name": "name",
      "outputs": [
        {
          "internalType": "string",
          "name": "",
          "type": "string"
        }
      ],
      "stateMutability": "view",
      "type": "function"
    },
    {
      "inputs": [
        {
          "internalType": "uint256",
          "name": "tokenId",
          "type": "uint256"
        }
      ],
      "name": "ownerOf",
      "outputs": [
        {
          "internalType": "address",
          "name": "",
          "type": "address"
        }
      ],
      "stateMutability": "view",
      "type": "function"
    },
    {
      "inputs": [
        {
          "internalType": "address",
          "name": "from",
          "type": "address"
        },
        {
          "internalType": "address",
          "name": "to",
          "type": "address"
        },
        {
          "internalType": "uint256",
          "name": "tokenId",
          "type": "uint256"
        }
      ],
      "name": "safeTransferFrom",
      "outputs": [],
      "stateMutability": "nonpayable",
      "type": "function"
    },
    {
      "inputs": [
        {
          "internalType": "address",
          "name": "from",
          "type": "address"
        },
        {
          "internalType": "address",
          "name": "to",
          "type": "address"
        },
        {
          "internalType": "uint256",
          "name": "tokenId",
          "type": "uint256"
        },
        {
          "internalType": "bytes",
          "name": "data",
          "type": "bytes"
        }
      ],
      "name": "safeTransferFrom",
      "outputs": [],
      "stateMutability": "nonpayable",
      "type": "function"
    },
    {
      "inputs": [
        {
          "internalType": "address",
          "name": "operator",
          "type": "address"
        },
        {
          "internalType": "bool",
          "name": "approved",
          "type": "bool"
        }
      ],
      "name": "setApprovalForAll",
      "outputs": [],
      "stateMutability": "nonpayable",
      "type": "function"
    },
    {
      "inputs": [
        {
          "internalType": "bytes4",
          "name": "interfaceId",
          "type": "bytes4"
        }
      ],
      "name": "supportsInterface",
      "outputs": [
        {
          "internalType": "bool",
          "name": "",
          "type": "bool"
        }
      ],
      "stateMutability": "view",
      "type": "function"
    },
    {
      "inputs": [],
      "name": "symbol",
      "outputs": [
        {
          "internalType": "string",
          "name": "",
          "type": "string"
        }
      ],
      "stateMutability": "view",
      "type": "function"
    },
    {
      "inputs": [
        {
          "internalType": "uint256",
          "name": "tokenId",
          "type": "uint256"
        }
      ],
      "name": "tokenURI",
      "outputs": [
        {
          "internalType": "string",
          "name": "",
          "type": "string"
        }
      ],
      "stateMutability": "view",
      "type": "function"
    },
    {
      "inputs": [
        {
          "internalType": "address",
          "name": "from",
          "type": "address"
        },
        {
          "internalType": "address",
          "name": "to",
          "type": "address"
        },
        {
          "internalType": "uint256",
          "name": "tokenId",
          "type": "uint256"
        }
      ],
      "name": "transferFrom",
      "outputs": [],
      "stateMutability": "nonpayable",
      "type": "function"
    }
  ],
  "bytecode": "0x608060405267016345785d8a00006006553480156200001d57600080fd5b506040518060400160405280600881526020017f41686d65644e46540000000000000000000000000000000000000000000000008152506040518060400160405280600681526020017f41682d4e4654000000000000000000000000000000000000000000000000000081525081600090816200009b919062000330565b508060019081620000ad919062000330565b50505062000417565b600081519050919050565b7f4e487b7100000000000000000000000000000000000000000000000000000000600052604160045260246000fd5b7f4e487b7100000000000000000000000000000000000000000000000000000000600052602260045260246000fd5b600060028204905060018216806200013857607f821691505b6020821081036200014e576200014d620000f0565b5b50919050565b60008190508160005260206000209050919050565b60006020601f8301049050919050565b600082821b905092915050565b600060088302620001b87fffffffffffffffffffffffffffffffffffffffffffffffffffffffffffffffff8262000179565b620001c4868362000179565b95508019841693508086168417925050509392505050565b6000819050919050565b6000819050919050565b6000620002116200020b6200020584620001dc565b620001e6565b620001dc565b9050919050565b6000819050919050565b6200022d83620001f0565b620002456200023c8262000218565b84845462000186565b825550505050565b600090565b6200025c6200024d565b6200026981848462000222565b505050565b5b8181101562000291576200028560008262000252565b6001810190506200026f565b5050565b601f821115620002e057620002aa8162000154565b620002b58462000169565b81016020851015620002c5578190505b620002dd620002d48562000169565b8301826200026e565b50505b505050565b600082821c905092915050565b60006200030560001984600802620002e5565b1980831691505092915050565b6000620003208383620002f2565b9150826002028217905092915050565b6200033b82620000b6565b67ffffffffffffffff811115620003575762000356620000c1565b5b6200036382546200011f565b6200037082828562000295565b600060209050601f831160018114620003a8576000841562000393578287015190505b6200039f858262000312565b8655506200040f565b601f198416620003b88662000154565b60005b82811015620003e257848901518255600182019150602085019450602081019050620003bb565b86831015620004025784890151620003fe601f891682620002f2565b8355505b6001600288020188555050505b505050505050565b6125f080620004276000396000f3fe608060405234801561001057600080fd5b50600436106100f55760003560e01c80636352211e11610097578063a22cb46511610066578063a22cb46514610284578063b88d4fde146102a0578063c87b56dd146102bc578063e985e9c5146102ec576100f5565b80636352211e146101e857806370a0823114610218578063714e25c31461024857806395d89b4114610266576100f5565b8063095ea7b3116100d3578063095ea7b31461017857806323b872dd146101945780633c168eab146101b057806342842e0e146101cc576100f5565b806301ffc9a7146100fa57806306fdde031461012a578063081812fc14610148575b600080fd5b610114600480360381019061010f91906117cd565b61031c565b6040516101219190611815565b60405180910390f35b6101326103fe565b60405161013f91906118c0565b60405180910390f35b610162600480360381019061015d9190611918565b610490565b60405161016f9190611986565b60405180910390f35b610192600480360381019061018d91906119cd565b6104d6565b005b6101ae60048036038101906101a99190611a0d565b6105ed565b005b6101ca60048036038101906101c591906119cd565b61064d565b005b6101e660048036038101906101e19190611a0d565b61065b565b005b61020260048036038101906101fd9190611918565b61067b565b60405161020f9190611986565b60405180910390f35b610232600480360381019061022d9190611a60565b610701565b60405161023f9190611a9c565b60405180910390f35b6102506107b8565b60405161025d9190611a9c565b60405180910390f35b61026e6107be565b60405161027b91906118c0565b60405180910390f35b61029e60048036038101906102999190611ae3565b610850565b005b6102ba60048036038101906102b59190611c58565b610866565b005b6102d660048036038101906102d19190611918565b6108c8565b6040516102e391906118c0565b60405180910390f35b61030660048036038101906103019190611cdb565b61096f565b6040516103139190611815565b60405180910390f35b60007f80ac58cd000000000000000000000000000000000000000000000000000000007bffffffffffffffffffffffffffffffffffffffffffffffffffffffff1916827bffffffffffffffffffffffffffffffffffffffffffffffffffffffff191614806103e757507f5b5e139f000000000000000000000000000000000000000000000000000000007bffffffffffffffffffffffffffffffffffffffffffffffffffffffff1916827bffffffffffffffffffffffffffffffffffffffffffffffffffffffff1916145b806103f757506103f682610a03565b5b9050919050565b60606000805461040d90611d4a565b80601f016020809104026020016040519081016040528092919081815260200182805461043990611d4a565b80156104865780601f1061045b57610100808354040283529160200191610486565b820191906000526020600020905b81548152906001019060200180831161046957829003601f168201915b5050505050905090565b600061049b82610a6d565b6004600083815260200190815260200160002060009054906101000a900473ffffffffffffffffffffffffffffffffffffffff169050919050565b60006104e18261067b565b90508073ffffffffffffffffffffffffffffffffffffffff168373ffffffffffffffffffffffffffffffffffffffff1603610551576040517f08c379a000000000000000000000000000000000000000000000000000000000815260040161054890611ded565b60405180910390fd5b8073ffffffffffffffffffffffffffffffffffffffff16610570610ab8565b73ffffffffffffffffffffffffffffffffffffffff16148061059f575061059e81610599610ab8565b61096f565b5b6105de576040517f08c379a00000000000000000000000000000000000000000000000000000000081526004016105d590611e7f565b60405180910390fd5b6105e88383610ac0565b505050565b6105fe6105f8610ab8565b82610b79565b61063d576040517f08c379a000000000000000000000000000000000000000000000000000000000815260040161063490611f11565b60405180910390fd5b610648838383610c0e565b505050565b6106578282610f07565b5050565b61067683838360405180602001604052806000815250610866565b505050565b60008061068783611124565b9050600073ffffffffffffffffffffffffffffffffffffffff168173ffffffffffffffffffffffffffffffffffffffff16036106f8576040517f08c379a00000000000000000000000000000000000000000000000000000000081526004016106ef90611f7d565b60405180910390fd5b80915050919050565b60008073ffffffffffffffffffffffffffffffffffffffff168273ffffffffffffffffffffffffffffffffffffffff1603610771576040517f08c379a00000000000000000000000000000000000000000000000000000000081526004016107689061200f565b60405180910390fd5b600360008373ffffffffffffffffffffffffffffffffffffffff1673ffffffffffffffffffffffffffffffffffffffff168152602001908152602001600020549050919050565b60065481565b6060600180546107cd90611d4a565b80601f01602080910402602001604051908101604052809291908181526020018280546107f990611d4a565b80156108465780601f1061081b57610100808354040283529160200191610846565b820191906000526020600020905b81548152906001019060200180831161082957829003601f168201915b5050505050905090565b61086261085b610ab8565b8383611161565b5050565b610877610871610ab8565b83610b79565b6108b6576040517f08c379a00000000000000000000000000000000000000000000000000000000081526004016108ad90611f11565b60405180910390fd5b6108c2848484846112cd565b50505050565b60606108d382611329565b610912576040517f08c379a0000000000000000000000000000000000000000000000000000000008152600401610909906120a1565b60405180910390fd5b600061091c61136a565b9050600081511161093c5760405180602001604052806000815250610967565b806109468461138a565b604051602001610957929190612149565b6040516020818303038152906040525b915050919050565b6000600560008473ffffffffffffffffffffffffffffffffffffffff1673ffffffffffffffffffffffffffffffffffffffff16815260200190815260200160002060008373ffffffffffffffffffffffffffffffffffffffff1673ffffffffffffffffffffffffffffffffffffffff16815260200190815260200160002060009054906101000a900460ff16905092915050565b60007f01ffc9a7000000000000000000000000000000000000000000000000000000007bffffffffffffffffffffffffffffffffffffffffffffffffffffffff1916827bffffffffffffffffffffffffffffffffffffffffffffffffffffffff1916149050919050565b610a7681611329565b610ab5576040517f08c379a0000000000000000000000000000000000000000000000000000000008152600401610aac90611f7d565b60405180910390fd5b50565b600033905090565b816004600083815260200190815260200160002060006101000a81548173ffffffffffffffffffffffffffffffffffffffff021916908373ffffffffffffffffffffffffffffffffffffffff160217905550808273ffffffffffffffffffffffffffffffffffffffff16610b338361067b565b73ffffffffffffffffffffffffffffffffffffffff167f8c5be1e5ebec7d5bd14f71427d1e84f3dd0314c0f7b2291e5b200ac8c7c3b92560405160405180910390a45050565b600080610b858361067b565b90508073ffffffffffffffffffffffffffffffffffffffff168473ffffffffffffffffffffffffffffffffffffffff161480610bc75750610bc6818561096f565b5b80610c0557508373ffffffffffffffffffffffffffffffffffffffff16610bed84610490565b73ffffffffffffffffffffffffffffffffffffffff16145b91505092915050565b8273ffffffffffffffffffffffffffffffffffffffff16610c2e8261067b565b73ffffffffffffffffffffffffffffffffffffffff1614610c84576040517f08c379a0000000000000000000000000000000000000000000000000000000008152600401610c7b906121ea565b60405180910390fd5b600073ffffffffffffffffffffffffffffffffffffffff168273ffffffffffffffffffffffffffffffffffffffff1603610cf3576040517f08c379a0000000000000000000000000000000000000000000000000000000008152600401610cea9061227c565b60405180910390fd5b610d008383836001611458565b8273ffffffffffffffffffffffffffffffffffffffff16610d208261067b565b73ffffffffffffffffffffffffffffffffffffffff1614610d76576040517f08c379a0000000000000000000000000000000000000000000000000000000008152600401610d6d906121ea565b60405180910390fd5b6004600082815260200190815260200160002060006101000a81549073ffffffffffffffffffffffffffffffffffffffff02191690556001600360008573ffffffffffffffffffffffffffffffffffffffff1673ffffffffffffffffffffffffffffffffffffffff168152602001908152602001600020600082825403925050819055506001600360008473ffffffffffffffffffffffffffffffffffffffff1673ffffffffffffffffffffffffffffffffffffffff16815260200190815260200160002060008282540192505081905550816002600083815260200190815260200160002060006101000a81548173ffffffffffffffffffffffffffffffffffffffff021916908373ffffffffffffffffffffffffffffffffffffffff160217905550808273ffffffffffffffffffffffffffffffffffffffff168473ffffffffffffffffffffffffffffffffffffffff167fddf252ad1be2c89b69c2b068fc378daa952ba7f163c4a11628f55a4df523b3ef60405160405180910390a4610f02838383600161145e565b505050565b600073ffffffffffffffffffffffffffffffffffffffff168273ffffffffffffffffffffffffffffffffffffffff1603610f76576040517f08c379a0000000000000000000000000000000000000000000000000000000008152600401610f6d906122e8565b60405180910390fd5b610f7f81611329565b15610fbf576040517f08c379a0000000000000000000000000000000000000000000000000000000008152600401610fb690612354565b60405180910390fd5b610fcd600083836001611458565b610fd681611329565b15611016576040517f08c379a000000000000000000000000000000000000000000000000000000000815260040161100d90612354565b60405180910390fd5b6001600360008473ffffffffffffffffffffffffffffffffffffffff1673ffffffffffffffffffffffffffffffffffffffff16815260200190815260200160002060008282540192505081905550816002600083815260200190815260200160002060006101000a81548173ffffffffffffffffffffffffffffffffffffffff021916908373ffffffffffffffffffffffffffffffffffffffff160217905550808273ffffffffffffffffffffffffffffffffffffffff16600073ffffffffffffffffffffffffffffffffffffffff167fddf252ad1be2c89b69c2b068fc378daa952ba7f163c4a11628f55a4df523b3ef60405160405180910390a461112060008383600161145e565b5050565b60006002600083815260200190815260200160002060009054906101000a900473ffffffffffffffffffffffffffffffffffffffff169050919050565b8173ffffffffffffffffffffffffffffffffffffffff168373ffffffffffffffffffffffffffffffffffffffff16036111cf576040517f08c379a00000000000000000000000000000000000000000000000000000000081526004016111c6906123c0565b60405180910390fd5b80600560008573ffffffffffffffffffffffffffffffffffffffff1673ffffffffffffffffffffffffffffffffffffffff16815260200190815260200160002060008473ffffffffffffffffffffffffffffffffffffffff1673ffffffffffffffffffffffffffffffffffffffff16815260200190815260200160002060006101000a81548160ff0219169083151502179055508173ffffffffffffffffffffffffffffffffffffffff168373ffffffffffffffffffffffffffffffffffffffff167f17307eab39ab6107e8899845ad3d59bd9653f200f220920489ca2b5937696c31836040516112c09190611815565b60405180910390a3505050565b6112d8848484610c0e565b6112e484848484611464565b611323576040517f08c379a000000000000000000000000000000000000000000000000000000000815260040161131a90612452565b60405180910390fd5b50505050565b60008073ffffffffffffffffffffffffffffffffffffffff1661134b83611124565b73ffffffffffffffffffffffffffffffffffffffff1614159050919050565b606060405180606001604052806036815260200161258560369139905090565b606060006001611399846115eb565b01905060008167ffffffffffffffff8111156113b8576113b7611b2d565b5b6040519080825280601f01601f1916602001820160405280156113ea5781602001600182028036833780820191505090505b509050600082602001820190505b60011561144d578080600190039150507f3031323334353637383961626364656600000000000000000000000000000000600a86061a8153600a858161144157611440612472565b5b049450600085036113f8575b819350505050919050565b50505050565b50505050565b60006114858473ffffffffffffffffffffffffffffffffffffffff1661173e565b156115de578373ffffffffffffffffffffffffffffffffffffffff1663150b7a026114ae610ab8565b8786866040518563ffffffff1660e01b81526004016114d094939291906124f6565b6020604051808303816000875af192505050801561150c57506040513d601f19601f820116820180604052508101906115099190612557565b60015b61158e573d806000811461153c576040519150601f19603f3d011682016040523d82523d6000602084013e611541565b606091505b506000815103611586576040517f08c379a000000000000000000000000000000000000000000000000000000000815260040161157d90612452565b60405180910390fd5b805181602001fd5b63150b7a0260e01b7bffffffffffffffffffffffffffffffffffffffffffffffffffffffff1916817bffffffffffffffffffffffffffffffffffffffffffffffffffffffff1916149150506115e3565b600190505b949350505050565b600080600090507a184f03e93ff9f4daa797ed6e38ed64bf6a1f0100000000000000008310611649577a184f03e93ff9f4daa797ed6e38ed64bf6a1f010000000000000000838161163f5761163e612472565b5b0492506040810190505b6d04ee2d6d415b85acef81000000008310611686576d04ee2d6d415b85acef8100000000838161167c5761167b612472565b5b0492506020810190505b662386f26fc1000083106116b557662386f26fc1000083816116ab576116aa612472565b5b0492506010810190505b6305f5e10083106116de576305f5e10083816116d4576116d3612472565b5b0492506008810190505b61271083106117035761271083816116f9576116f8612472565b5b0492506004810190505b60648310611726576064838161171c5761171b612472565b5b0492506002810190505b600a8310611735576001810190505b80915050919050565b6000808273ffffffffffffffffffffffffffffffffffffffff163b119050919050565b6000604051905090565b600080fd5b600080fd5b60007fffffffff0000000000000000000000000000000000000000000000000000000082169050919050565b6117aa81611775565b81146117b557600080fd5b50565b6000813590506117c7816117a1565b92915050565b6000602082840312156117e3576117e261176b565b5b60006117f1848285016117b8565b91505092915050565b60008115159050919050565b61180f816117fa565b82525050565b600060208201905061182a6000830184611806565b92915050565b600081519050919050565b600082825260208201905092915050565b60005b8381101561186a57808201518184015260208101905061184f565b60008484015250505050565b6000601f19601f8301169050919050565b600061189282611830565b61189c818561183b565b93506118ac81856020860161184c565b6118b581611876565b840191505092915050565b600060208201905081810360008301526118da8184611887565b905092915050565b6000819050919050565b6118f5816118e2565b811461190057600080fd5b50565b600081359050611912816118ec565b92915050565b60006020828403121561192e5761192d61176b565b5b600061193c84828501611903565b91505092915050565b600073ffffffffffffffffffffffffffffffffffffffff82169050919050565b600061197082611945565b9050919050565b61198081611965565b82525050565b600060208201905061199b6000830184611977565b92915050565b6119aa81611965565b81146119b557600080fd5b50565b6000813590506119c7816119a1565b92915050565b600080604083850312156119e4576119e361176b565b5b60006119f2858286016119b8565b9250506020611a0385828601611903565b9150509250929050565b600080600060608486031215611a2657611a2561176b565b5b6000611a34868287016119b8565b9350506020611a45868287016119b8565b9250506040611a5686828701611903565b9150509250925092565b600060208284031215611a7657611a7561176b565b5b6000611a84848285016119b8565b91505092915050565b611a96816118e2565b82525050565b6000602082019050611ab16000830184611a8d565b92915050565b611ac0816117fa565b8114611acb57600080fd5b50565b600081359050611add81611ab7565b92915050565b60008060408385031215611afa57611af961176b565b5b6000611b08858286016119b8565b9250506020611b1985828601611ace565b9150509250929050565b600080fd5b600080fd5b7f4e487b7100000000000000000000000000000000000000000000000000000000600052604160045260246000fd5b611b6582611876565b810181811067ffffffffffffffff82111715611b8457611b83611b2d565b5b80604052505050565b6000611b97611761565b9050611ba38282611b5c565b919050565b600067ffffffffffffffff821115611bc357611bc2611b2d565b5b611bcc82611876565b9050602081019050919050565b82818337600083830152505050565b6000611bfb611bf684611ba8565b611b8d565b905082815260208101848484011115611c1757611c16611b28565b5b611c22848285611bd9565b509392505050565b600082601f830112611c3f57611c3e611b23565b5b8135611c4f848260208601611be8565b91505092915050565b60008060008060808587031215611c7257611c7161176b565b5b6000611c80878288016119b8565b9450506020611c91878288016119b8565b9350506040611ca287828801611903565b925050606085013567ffffffffffffffff811115611cc357611cc2611770565b5b611ccf87828801611c2a565b91505092959194509250565b60008060408385031215611cf257611cf161176b565b5b6000611d00858286016119b8565b9250506020611d11858286016119b8565b9150509250929050565b7f4e487b7100000000000000000000000000000000000000000000000000000000600052602260045260246000fd5b60006002820490506001821680611d6257607f821691505b602082108103611d7557611d74611d1b565b5b50919050565b7f4552433732313a20617070726f76616c20746f2063757272656e74206f776e6560008201527f7200000000000000000000000000000000000000000000000000000000000000602082015250565b6000611dd760218361183b565b9150611de282611d7b565b604082019050919050565b60006020820190508181036000830152611e0681611dca565b9050919050565b7f4552433732313a20617070726f76652063616c6c6572206973206e6f7420746f60008201527f6b656e206f776e6572206f7220617070726f76656420666f7220616c6c000000602082015250565b6000611e69603d8361183b565b9150611e7482611e0d565b604082019050919050565b60006020820190508181036000830152611e9881611e5c565b9050919050565b7f4552433732313a2063616c6c6572206973206e6f7420746f6b656e206f776e6560008201527f72206f7220617070726f76656400000000000000000000000000000000000000602082015250565b6000611efb602d8361183b565b9150611f0682611e9f565b604082019050919050565b60006020820190508181036000830152611f2a81611eee565b9050919050565b7f4552433732313a20696e76616c696420746f6b656e2049440000000000000000600082015250565b6000611f6760188361183b565b9150611f7282611f31565b602082019050919050565b60006020820190508181036000830152611f9681611f5a565b9050919050565b7f4552433732313a2061646472657373207a65726f206973206e6f74206120766160008201527f6c6964206f776e65720000000000000000000000000000000000000000000000602082015250565b6000611ff960298361183b565b915061200482611f9d565b604082019050919050565b6000602082019050818103600083015261202881611fec565b9050919050565b7f4552433732314d657461646174613a2055524920717565727920666f72206e6f60008201527f6e6578697374656e7420746f6b656e0000000000000000000000000000000000602082015250565b600061208b602f8361183b565b91506120968261202f565b604082019050919050565b600060208201905081810360008301526120ba8161207e565b9050919050565b600081905092915050565b60006120d782611830565b6120e181856120c1565b93506120f181856020860161184c565b80840191505092915050565b7f2e6a736f6e000000000000000000000000000000000000000000000000000000600082015250565b60006121336005836120c1565b915061213e826120fd565b600582019050919050565b600061215582856120cc565b915061216182846120cc565b915061216c82612126565b91508190509392505050565b7f4552433732313a207472616e736665722066726f6d20696e636f72726563742060008201527f6f776e6572000000000000000000000000000000000000000000000000000000602082015250565b60006121d460258361183b565b91506121df82612178565b604082019050919050565b60006020820190508181036000830152612203816121c7565b9050919050565b7f4552433732313a207472616e7366657220746f20746865207a65726f2061646460008201527f7265737300000000000000000000000000000000000000000000000000000000602082015250565b600061226660248361183b565b91506122718261220a565b604082019050919050565b6000602082019050818103600083015261229581612259565b9050919050565b7f4552433732313a206d696e7420746f20746865207a65726f2061646472657373600082015250565b60006122d260208361183b565b91506122dd8261229c565b602082019050919050565b60006020820190508181036000830152612301816122c5565b9050919050565b7f4552433732313a20746f6b656e20616c7265616479206d696e74656400000000600082015250565b600061233e601c8361183b565b915061234982612308565b602082019050919050565b6000602082019050818103600083015261236d81612331565b9050919050565b7f4552433732313a20617070726f766520746f2063616c6c657200000000000000600082015250565b60006123aa60198361183b565b91506123b582612374565b602082019050919050565b600060208201905081810360008301526123d98161239d565b9050919050565b7f4552433732313a207472616e7366657220746f206e6f6e20455243373231526560008201527f63656976657220696d706c656d656e7465720000000000000000000000000000602082015250565b600061243c60328361183b565b9150612447826123e0565b604082019050919050565b6000602082019050818103600083015261246b8161242f565b9050919050565b7f4e487b7100000000000000000000000000000000000000000000000000000000600052601260045260246000fd5b600081519050919050565b600082825260208201905092915050565b60006124c8826124a1565b6124d281856124ac565b93506124e281856020860161184c565b6124eb81611876565b840191505092915050565b600060808201905061250b6000830187611977565b6125186020830186611977565b6125256040830185611a8d565b818103606083015261253781846124bd565b905095945050505050565b600081519050612551816117a1565b92915050565b60006020828403121561256d5761256c61176b565b5b600061257b84828501612542565b9150509291505056fe697066733a2f2f516d506577504b526733466f574461434b785739583676587661396a42706d6777534851614a41796e39527233582fa2646970667358221220c4eddbadb3f2896b4bd79a1d0720b2cf175fe518ffb97eb8cdce510c6bc49be064736f6c63430008130033",
  "linkReferences": {},
  "deployedLinkReferences": {}
}