{
  "_format": "hh-sol-artifact-1",
  "contractName": "BoobaToken",
  "sourceName": "contracts/BoobaToken.sol",
  "abi": [
    {
      "inputs": [],
      "stateMutability": "nonpayable",
      "type": "constructor"
    },
    {
      "anonymous": false,
      "inputs": [
        {
          "indexed": true,
          "internalType": "address",
          "name": "owner",
          "type": "address"
        },
        {
          "indexed": true,
          "internalType": "address",
          "name": "spender",
          "type": "address"
        },
        {
          "indexed": false,
          "internalType": "uint256",
          "name": "value",
          "type": "uint256"
        }
      ],
      "name": "Approval",
      "type": "event"
    },
    {
      "anonymous": false,
      "inputs": [
        {
          "indexed": true,
          "internalType": "address",
          "name": "previousOwner",
          "type": "address"
        },
        {
          "indexed": true,
          "internalType": "address",
          "name": "newOwner",
          "type": "address"
        }
      ],
      "name": "OwnershipTransferred",
      "type": "event"
    },
    {
      "anonymous": false,
      "inputs": [
        {
          "indexed": true,
          "internalType": "address",
          "name": "from",
          "type": "address"
        },
        {
          "indexed": true,
          "internalType": "address",
          "name": "to",
          "type": "address"
        },
        {
          "indexed": false,
          "internalType": "uint256",
          "name": "value",
          "type": "uint256"
        }
      ],
      "name": "Transfer",
      "type": "event"
    },
    {
      "inputs": [],
      "name": "PRICE_IN_WEI",
      "outputs": [
        {
          "internalType": "uint256",
          "name": "",
          "type": "uint256"
        }
      ],
      "stateMutability": "view",
      "type": "function"
    },
    {
      "inputs": [
        {
          "internalType": "address",
          "name": "owner",
          "type": "address"
        },
        {
          "internalType": "address",
          "name": "spender",
          "type": "address"
        }
      ],
      "name": "allowance",
      "outputs": [
        {
          "internalType": "uint256",
          "name": "",
          "type": "uint256"
        }
      ],
      "stateMutability": "view",
      "type": "function"
    },
    {
      "inputs": [
        {
          "internalType": "address",
          "name": "spender",
          "type": "address"
        },
        {
          "internalType": "uint256",
          "name": "amount",
          "type": "uint256"
        }
      ],
      "name": "approve",
      "outputs": [
        {
          "internalType": "bool",
          "name": "",
          "type": "bool"
        }
      ],
      "stateMutability": "nonpayable",
      "type": "function"
    },
    {
      "inputs": [
        {
          "internalType": "address",
          "name": "account",
          "type": "address"
        }
      ],
      "name": "balanceOf",
      "outputs": [
        {
          "internalType": "uint256",
          "name": "",
          "type": "uint256"
        }
      ],
      "stateMutability": "view",
      "type": "function"
    },
    {
      "inputs": [],
      "name": "decimals",
      "outputs": [
        {
          "internalType": "uint8",
          "name": "",
          "type": "uint8"
        }
      ],
      "stateMutability": "view",
      "type": "function"
    },
    {
      "inputs": [
        {
          "internalType": "address",
          "name": "spender",
          "type": "address"
        },
        {
          "internalType": "uint256",
          "name": "subtractedValue",
          "type": "uint256"
        }
      ],
      "name": "decreaseAllowance",
      "outputs": [
        {
          "internalType": "bool",
          "name": "",
          "type": "bool"
        }
      ],
      "stateMutability": "nonpayable",
      "type": "function"
    },
    {
      "inputs": [
        {
          "internalType": "address",
          "name": "spender",
          "type": "address"
        },
        {
          "internalType": "uint256",
          "name": "addedValue",
          "type": "uint256"
        }
      ],
      "name": "increaseAllowance",
      "outputs": [
        {
          "internalType": "bool",
          "name": "",
          "type": "bool"
        }
      ],
      "stateMutability": "nonpayable",
      "type": "function"
    },
    {
      "inputs": [
        {
          "internalType": "address",
          "name": "to",
          "type": "address"
        }
      ],
      "name": "mint",
      "outputs": [],
      "stateMutability": "payable",
      "type": "function"
    },
    {
      "inputs": [],
      "name": "name",
      "outputs": [
        {
          "internalType": "string",
          "name": "",
          "type": "string"
        }
      ],
      "stateMutability": "view",
      "type": "function"
    },
    {
      "inputs": [],
      "name": "owner",
      "outputs": [
        {
          "internalType": "address",
          "name": "",
          "type": "address"
        }
      ],
      "stateMutability": "view",
      "type": "function"
    },
    {
      "inputs": [],
      "name": "renounceOwnership",
      "outputs": [],
      "stateMutability": "nonpayable",
      "type": "function"
    },
    {
      "inputs": [],
      "name": "symbol",
      "outputs": [
        {
          "internalType": "string",
          "name": "",
          "type": "string"
        }
      ],
      "stateMutability": "view",
      "type": "function"
    },
    {
      "inputs": [],
      "name": "totalSupply",
      "outputs": [
        {
          "internalType": "uint256",
          "name": "",
          "type": "uint256"
        }
      ],
      "stateMutability": "view",
      "type": "function"
    },
    {
      "inputs": [
        {
          "internalType": "address",
          "name": "to",
          "type": "address"
        },
        {
          "internalType": "uint256",
          "name": "amount",
          "type": "uint256"
        }
      ],
      "name": "transfer",
      "outputs": [
        {
          "internalType": "bool",
          "name": "",
          "type": "bool"
        }
      ],
      "stateMutability": "nonpayable",
      "type": "function"
    },
    {
      "inputs": [
        {
          "internalType": "address",
          "name": "from",
          "type": "address"
        },
        {
          "internalType": "address",
          "name": "to",
          "type": "address"
        },
        {
          "internalType": "uint256",
          "name": "amount",
          "type": "uint256"
        }
      ],
      "name": "transferFrom",
      "outputs": [
        {
          "internalType": "bool",
          "name": "",
          "type": "bool"
        }
      ],
      "stateMutability": "nonpayable",
      "type": "function"
    },
    {
      "inputs": [
        {
          "internalType": "address",
          "name": "newOwner",
          "type": "address"
        }
      ],
      "name": "transferOwnership",
      "outputs": [],
      "stateMutability": "nonpayable",
      "type": "function"
    }
  ],
  "bytecode": "0x608060405267016345785d8a00006006553480156200001d57600080fd5b506040518060400160405280600a81526020017f426f6f6261546f6b656e000000000000000000000000000000000000000000008152506040518060400160405280600381526020017f42324f000000000000000000000000000000000000000000000000000000000081525081600390816200009b9190620005dd565b508060049081620000ad9190620005dd565b505050620000d0620000c46200011560201b60201c565b6200011d60201b60201c565b6200010f33620000e5620001e360201b60201c565b600a620000f3919062000854565b620f4240620001039190620008a5565b620001ec60201b60201c565b620009dc565b600033905090565b6000600560009054906101000a900473ffffffffffffffffffffffffffffffffffffffff16905081600560006101000a81548173ffffffffffffffffffffffffffffffffffffffff021916908373ffffffffffffffffffffffffffffffffffffffff1602179055508173ffffffffffffffffffffffffffffffffffffffff168173ffffffffffffffffffffffffffffffffffffffff167f8be0079c531659141344cd1fd0a4f28419497f9722a3daafe3b4186f6b6457e060405160405180910390a35050565b60006012905090565b600073ffffffffffffffffffffffffffffffffffffffff168273ffffffffffffffffffffffffffffffffffffffff16036200025e576040517f08c379a0000000000000000000000000000000000000000000000000000000008152600401620002559062000951565b60405180910390fd5b62000272600083836200035960201b60201c565b806002600082825462000286919062000973565b92505081905550806000808473ffffffffffffffffffffffffffffffffffffffff1673ffffffffffffffffffffffffffffffffffffffff168152602001908152602001600020600082825401925050819055508173ffffffffffffffffffffffffffffffffffffffff16600073ffffffffffffffffffffffffffffffffffffffff167fddf252ad1be2c89b69c2b068fc378daa952ba7f163c4a11628f55a4df523b3ef83604051620003399190620009bf565b60405180910390a362000355600083836200035e60201b60201c565b5050565b505050565b505050565b600081519050919050565b7f4e487b7100000000000000000000000000000000000000000000000000000000600052604160045260246000fd5b7f4e487b7100000000000000000000000000000000000000000000000000000000600052602260045260246000fd5b60006002820490506001821680620003e557607f821691505b602082108103620003fb57620003fa6200039d565b5b50919050565b60008190508160005260206000209050919050565b60006020601f8301049050919050565b600082821b905092915050565b600060088302620004657fffffffffffffffffffffffffffffffffffffffffffffffffffffffffffffffff8262000426565b62000471868362000426565b95508019841693508086168417925050509392505050565b6000819050919050565b6000819050919050565b6000620004be620004b8620004b28462000489565b62000493565b62000489565b9050919050565b6000819050919050565b620004da836200049d565b620004f2620004e982620004c5565b84845462000433565b825550505050565b600090565b62000509620004fa565b62000516818484620004cf565b505050565b5b818110156200053e5762000532600082620004ff565b6001810190506200051c565b5050565b601f8211156200058d57620005578162000401565b620005628462000416565b8101602085101562000572578190505b6200058a620005818562000416565b8301826200051b565b50505b505050565b600082821c905092915050565b6000620005b26000198460080262000592565b1980831691505092915050565b6000620005cd83836200059f565b9150826002028217905092915050565b620005e88262000363565b67ffffffffffffffff8111156200060457620006036200036e565b5b620006108254620003cc565b6200061d82828562000542565b600060209050601f83116001811462000655576000841562000640578287015190505b6200064c8582620005bf565b865550620006bc565b601f198416620006658662000401565b60005b828110156200068f5784890151825560018201915060208501945060208101905062000668565b86831015620006af5784890151620006ab601f8916826200059f565b8355505b6001600288020188555050505b505050505050565b7f4e487b7100000000000000000000000000000000000000000000000000000000600052601160045260246000fd5b60008160011c9050919050565b6000808291508390505b600185111562000752578086048111156200072a5762000729620006c4565b5b60018516156200073a5780820291505b80810290506200074a85620006f3565b94506200070a565b94509492505050565b6000826200076d576001905062000840565b816200077d576000905062000840565b8160018114620007965760028114620007a157620007d7565b600191505062000840565b60ff841115620007b657620007b5620006c4565b5b8360020a915084821115620007d057620007cf620006c4565b5b5062000840565b5060208310610133831016604e8410600b8410161715620008115782820a9050838111156200080b576200080a620006c4565b5b62000840565b62000820848484600162000700565b925090508184048111156200083a5762000839620006c4565b5b81810290505b9392505050565b600060ff82169050919050565b6000620008618262000489565b91506200086e8362000847565b92506200089d7fffffffffffffffffffffffffffffffffffffffffffffffffffffffffffffffff84846200075b565b905092915050565b6000620008b28262000489565b9150620008bf8362000489565b9250828202620008cf8162000489565b91508282048414831517620008e957620008e8620006c4565b5b5092915050565b600082825260208201905092915050565b7f45524332303a206d696e7420746f20746865207a65726f206164647265737300600082015250565b600062000939601f83620008f0565b9150620009468262000901565b602082019050919050565b600060208201905081810360008301526200096c816200092a565b9050919050565b6000620009808262000489565b91506200098d8362000489565b9250828201905080821115620009a857620009a7620006c4565b5b92915050565b620009b98162000489565b82525050565b6000602082019050620009d66000830184620009ae565b92915050565b61197580620009ec6000396000f3fe6080604052600436106100f35760003560e01c8063714e25c31161008a578063a457c2d711610059578063a457c2d714610321578063a9059cbb1461035e578063dd62ed3e1461039b578063f2fde38b146103d8576100f3565b8063714e25c314610289578063715018a6146102b45780638da5cb5b146102cb57806395d89b41146102f6576100f3565b8063313ce567116100c6578063313ce567146101c857806339509351146101f35780636a6278421461023057806370a082311461024c576100f3565b806306fdde03146100f8578063095ea7b31461012357806318160ddd1461016057806323b872dd1461018b575b600080fd5b34801561010457600080fd5b5061010d610401565b60405161011a9190611052565b60405180910390f35b34801561012f57600080fd5b5061014a6004803603810190610145919061110d565b610493565b6040516101579190611168565b60405180910390f35b34801561016c57600080fd5b506101756104b6565b6040516101829190611192565b60405180910390f35b34801561019757600080fd5b506101b260048036038101906101ad91906111ad565b6104c0565b6040516101bf9190611168565b60405180910390f35b3480156101d457600080fd5b506101dd6104ef565b6040516101ea919061121c565b60405180910390f35b3480156101ff57600080fd5b5061021a6004803603810190610215919061110d565b6104f8565b6040516102279190611168565b60405180910390f35b61024a60048036038101906102459190611237565b61052f565b005b34801561025857600080fd5b50610273600480360381019061026e9190611237565b610589565b6040516102809190611192565b60405180910390f35b34801561029557600080fd5b5061029e6105d1565b6040516102ab9190611192565b60405180910390f35b3480156102c057600080fd5b506102c96105d7565b005b3480156102d757600080fd5b506102e06105eb565b6040516102ed9190611273565b60405180910390f35b34801561030257600080fd5b5061030b610615565b6040516103189190611052565b60405180910390f35b34801561032d57600080fd5b506103486004803603810190610343919061110d565b6106a7565b6040516103559190611168565b60405180910390f35b34801561036a57600080fd5b506103856004803603810190610380919061110d565b61071e565b6040516103929190611168565b60405180910390f35b3480156103a757600080fd5b506103c260048036038101906103bd919061128e565b610741565b6040516103cf9190611192565b60405180910390f35b3480156103e457600080fd5b506103ff60048036038101906103fa9190611237565b6107c8565b005b606060038054610410906112fd565b80601f016020809104026020016040519081016040528092919081815260200182805461043c906112fd565b80156104895780601f1061045e57610100808354040283529160200191610489565b820191906000526020600020905b81548152906001019060200180831161046c57829003601f168201915b5050505050905090565b60008061049e61084b565b90506104ab818585610853565b600191505092915050565b6000600254905090565b6000806104cb61084b565b90506104d8858285610a1c565b6104e3858585610aa8565b60019150509392505050565b60006012905090565b60008061050361084b565b90506105248185856105158589610741565b61051f919061135d565b610853565b600191505092915050565b600654341015610574576040517f08c379a000000000000000000000000000000000000000000000000000000000815260040161056b906113dd565b60405180910390fd5b61058681670de0b6b3a7640000610d1e565b50565b60008060008373ffffffffffffffffffffffffffffffffffffffff1673ffffffffffffffffffffffffffffffffffffffff168152602001908152602001600020549050919050565b60065481565b6105df610e74565b6105e96000610ef2565b565b6000600560009054906101000a900473ffffffffffffffffffffffffffffffffffffffff16905090565b606060048054610624906112fd565b80601f0160208091040260200160405190810160405280929190818152602001828054610650906112fd565b801561069d5780601f106106725761010080835404028352916020019161069d565b820191906000526020600020905b81548152906001019060200180831161068057829003601f168201915b5050505050905090565b6000806106b261084b565b905060006106c08286610741565b905083811015610705576040517f08c379a00000000000000000000000000000000000000000000000000000000081526004016106fc9061146f565b60405180910390fd5b6107128286868403610853565b60019250505092915050565b60008061072961084b565b9050610736818585610aa8565b600191505092915050565b6000600160008473ffffffffffffffffffffffffffffffffffffffff1673ffffffffffffffffffffffffffffffffffffffff16815260200190815260200160002060008373ffffffffffffffffffffffffffffffffffffffff1673ffffffffffffffffffffffffffffffffffffffff16815260200190815260200160002054905092915050565b6107d0610e74565b600073ffffffffffffffffffffffffffffffffffffffff168173ffffffffffffffffffffffffffffffffffffffff160361083f576040517f08c379a000000000000000000000000000000000000000000000000000000000815260040161083690611501565b60405180910390fd5b61084881610ef2565b50565b600033905090565b600073ffffffffffffffffffffffffffffffffffffffff168373ffffffffffffffffffffffffffffffffffffffff16036108c2576040517f08c379a00000000000000000000000000000000000000000000000000000000081526004016108b990611593565b60405180910390fd5b600073ffffffffffffffffffffffffffffffffffffffff168273ffffffffffffffffffffffffffffffffffffffff1603610931576040517f08c379a000000000000000000000000000000000000000000000000000000000815260040161092890611625565b60405180910390fd5b80600160008573ffffffffffffffffffffffffffffffffffffffff1673ffffffffffffffffffffffffffffffffffffffff16815260200190815260200160002060008473ffffffffffffffffffffffffffffffffffffffff1673ffffffffffffffffffffffffffffffffffffffff168152602001908152602001600020819055508173ffffffffffffffffffffffffffffffffffffffff168373ffffffffffffffffffffffffffffffffffffffff167f8c5be1e5ebec7d5bd14f71427d1e84f3dd0314c0f7b2291e5b200ac8c7c3b92583604051610a0f9190611192565b60405180910390a3505050565b6000610a288484610741565b90507fffffffffffffffffffffffffffffffffffffffffffffffffffffffffffffffff8114610aa25781811015610a94576040517f08c379a0000000000000000000000000000000000000000000000000000000008152600401610a8b90611691565b60405180910390fd5b610aa18484848403610853565b5b50505050565b600073ffffffffffffffffffffffffffffffffffffffff168373ffffffffffffffffffffffffffffffffffffffff1603610b17576040517f08c379a0000000000000000000000000000000000000000000000000000000008152600401610b0e90611723565b60405180910390fd5b600073ffffffffffffffffffffffffffffffffffffffff168273ffffffffffffffffffffffffffffffffffffffff1603610b86576040517f08c379a0000000000000000000000000000000000000000000000000000000008152600401610b7d906117b5565b60405180910390fd5b610b91838383610fb8565b60008060008573ffffffffffffffffffffffffffffffffffffffff1673ffffffffffffffffffffffffffffffffffffffff16815260200190815260200160002054905081811015610c17576040517f08c379a0000000000000000000000000000000000000000000000000000000008152600401610c0e90611847565b60405180910390fd5b8181036000808673ffffffffffffffffffffffffffffffffffffffff1673ffffffffffffffffffffffffffffffffffffffff16815260200190815260200160002081905550816000808573ffffffffffffffffffffffffffffffffffffffff1673ffffffffffffffffffffffffffffffffffffffff168152602001908152602001600020600082825401925050819055508273ffffffffffffffffffffffffffffffffffffffff168473ffffffffffffffffffffffffffffffffffffffff167fddf252ad1be2c89b69c2b068fc378daa952ba7f163c4a11628f55a4df523b3ef84604051610d059190611192565b60405180910390a3610d18848484610fbd565b50505050565b600073ffffffffffffffffffffffffffffffffffffffff168273ffffffffffffffffffffffffffffffffffffffff1603610d8d576040517f08c379a0000000000000000000000000000000000000000000000000000000008152600401610d84906118b3565b60405180910390fd5b610d9960008383610fb8565b8060026000828254610dab919061135d565b92505081905550806000808473ffffffffffffffffffffffffffffffffffffffff1673ffffffffffffffffffffffffffffffffffffffff168152602001908152602001600020600082825401925050819055508173ffffffffffffffffffffffffffffffffffffffff16600073ffffffffffffffffffffffffffffffffffffffff167fddf252ad1be2c89b69c2b068fc378daa952ba7f163c4a11628f55a4df523b3ef83604051610e5c9190611192565b60405180910390a3610e7060008383610fbd565b5050565b610e7c61084b565b73ffffffffffffffffffffffffffffffffffffffff16610e9a6105eb565b73ffffffffffffffffffffffffffffffffffffffff1614610ef0576040517f08c379a0000000000000000000000000000000000000000000000000000000008152600401610ee79061191f565b60405180910390fd5b565b6000600560009054906101000a900473ffffffffffffffffffffffffffffffffffffffff16905081600560006101000a81548173ffffffffffffffffffffffffffffffffffffffff021916908373ffffffffffffffffffffffffffffffffffffffff1602179055508173ffffffffffffffffffffffffffffffffffffffff168173ffffffffffffffffffffffffffffffffffffffff167f8be0079c531659141344cd1fd0a4f28419497f9722a3daafe3b4186f6b6457e060405160405180910390a35050565b505050565b505050565b600081519050919050565b600082825260208201905092915050565b60005b83811015610ffc578082015181840152602081019050610fe1565b60008484015250505050565b6000601f19601f8301169050919050565b600061102482610fc2565b61102e8185610fcd565b935061103e818560208601610fde565b61104781611008565b840191505092915050565b6000602082019050818103600083015261106c8184611019565b905092915050565b600080fd5b600073ffffffffffffffffffffffffffffffffffffffff82169050919050565b60006110a482611079565b9050919050565b6110b481611099565b81146110bf57600080fd5b50565b6000813590506110d1816110ab565b92915050565b6000819050919050565b6110ea816110d7565b81146110f557600080fd5b50565b600081359050611107816110e1565b92915050565b6000806040838503121561112457611123611074565b5b6000611132858286016110c2565b9250506020611143858286016110f8565b9150509250929050565b60008115159050919050565b6111628161114d565b82525050565b600060208201905061117d6000830184611159565b92915050565b61118c816110d7565b82525050565b60006020820190506111a76000830184611183565b92915050565b6000806000606084860312156111c6576111c5611074565b5b60006111d4868287016110c2565b93505060206111e5868287016110c2565b92505060406111f6868287016110f8565b9150509250925092565b600060ff82169050919050565b61121681611200565b82525050565b6000602082019050611231600083018461120d565b92915050565b60006020828403121561124d5761124c611074565b5b600061125b848285016110c2565b91505092915050565b61126d81611099565b82525050565b60006020820190506112886000830184611264565b92915050565b600080604083850312156112a5576112a4611074565b5b60006112b3858286016110c2565b92505060206112c4858286016110c2565b9150509250929050565b7f4e487b7100000000000000000000000000000000000000000000000000000000600052602260045260246000fd5b6000600282049050600182168061131557607f821691505b602082108103611328576113276112ce565b5b50919050565b7f4e487b7100000000000000000000000000000000000000000000000000000000600052601160045260246000fd5b6000611368826110d7565b9150611373836110d7565b925082820190508082111561138b5761138a61132e565b5b92915050565b7f4e6f7420656e6f75676820657468657200000000000000000000000000000000600082015250565b60006113c7601083610fcd565b91506113d282611391565b602082019050919050565b600060208201905081810360008301526113f6816113ba565b9050919050565b7f45524332303a2064656372656173656420616c6c6f77616e63652062656c6f7760008201527f207a65726f000000000000000000000000000000000000000000000000000000602082015250565b6000611459602583610fcd565b9150611464826113fd565b604082019050919050565b600060208201905081810360008301526114888161144c565b9050919050565b7f4f776e61626c653a206e6577206f776e657220697320746865207a65726f206160008201527f6464726573730000000000000000000000000000000000000000000000000000602082015250565b60006114eb602683610fcd565b91506114f68261148f565b604082019050919050565b6000602082019050818103600083015261151a816114de565b9050919050565b7f45524332303a20617070726f76652066726f6d20746865207a65726f2061646460008201527f7265737300000000000000000000000000000000000000000000000000000000602082015250565b600061157d602483610fcd565b915061158882611521565b604082019050919050565b600060208201905081810360008301526115ac81611570565b9050919050565b7f45524332303a20617070726f766520746f20746865207a65726f20616464726560008201527f7373000000000000000000000000000000000000000000000000000000000000602082015250565b600061160f602283610fcd565b915061161a826115b3565b604082019050919050565b6000602082019050818103600083015261163e81611602565b9050919050565b7f45524332303a20696e73756666696369656e7420616c6c6f77616e6365000000600082015250565b600061167b601d83610fcd565b915061168682611645565b602082019050919050565b600060208201905081810360008301526116aa8161166e565b9050919050565b7f45524332303a207472616e736665722066726f6d20746865207a65726f20616460008201527f6472657373000000000000000000000000000000000000000000000000000000602082015250565b600061170d602583610fcd565b9150611718826116b1565b604082019050919050565b6000602082019050818103600083015261173c81611700565b9050919050565b7f45524332303a207472616e7366657220746f20746865207a65726f206164647260008201527f6573730000000000000000000000000000000000000000000000000000000000602082015250565b600061179f602383610fcd565b91506117aa82611743565b604082019050919050565b600060208201905081810360008301526117ce81611792565b9050919050565b7f45524332303a207472616e7366657220616d6f756e742065786365656473206260008201527f616c616e63650000000000000000000000000000000000000000000000000000602082015250565b6000611831602683610fcd565b915061183c826117d5565b604082019050919050565b6000602082019050818103600083015261186081611824565b9050919050565b7f45524332303a206d696e7420746f20746865207a65726f206164647265737300600082015250565b600061189d601f83610fcd565b91506118a882611867565b602082019050919050565b600060208201905081810360008301526118cc81611890565b9050919050565b7f4f776e61626c653a2063616c6c6572206973206e6f7420746865206f776e6572600082015250565b6000611909602083610fcd565b9150611914826118d3565b602082019050919050565b60006020820190508181036000830152611938816118fc565b905091905056fea2646970667358221220dc2974e6b720afea3f271785a2670f3c6fed9f893f5f2483a788b92c91b3e68964736f6c63430008130033",
  "linkReferences": {},
  "deployedLinkReferences": {}
}